S01700004763634170706C69636174696F6E312E737265635B
S11300000C94B2020C94CF020C94CF020C94CF0245
S11300100C94CF020C94CF020C94CF020C94CF0218
S11300200C94CF020C94CF020C94CF020C94CF0208
S11300300C94CF020C94CF020C94CF020C94CF02F8
S11300400C94CF020C94CF020C94CF020C94CF02E8
S11300500C94CF020C94CF020C94CF020C94CF02D8
S11300600C94CF020C94CF0200000000003E5B4FC2
S11300705B3E3E6B4F6B3E1C3E7C3E1C183C7E3C04
S1130080181C577D571C1C5E7F5E1C00183C180012
S1130090FFE7C3E7FF0018241800FFE7DBE7FF30A2
S11300A0483A060E2629792926407F050507407F10
S11300B005253F5A3CE73C5A7F3E1C1C08081C1C83
S11300C03E7F14227F22145F5F005F5F06097F0179
S11300D07F006689956A606060606094A2FFA29464
S11300E008047E040810207E201008082A1C080832
S11300F01C2A08081E101010100C1E0C1E0C303880
S11301003E3830060E3E0E06000000000000005F80
S113011000000007000700147F147F14242A7F2A9C
S1130120122313086462364956205000080703005E
S1130130001C2241000041221C002A1C7F1C2A08AA
S1130140083E08080080703000080808080800000D
S113015060600020100804023E5149453E00427F81
S1130160400072494949462141494D331814127FD0
S11301701027454545393C4A494931412111090770
S11301803649494936464949291E000014000000F1
S113019040340000000814224114141414140041C3
S11301A022140802015909063E415D594E7C121180
S11301B0127C7F494949363E414141227F414141B8
S11301C03E7F494949417F090909013E4141517333
S11301D07F0808087F00417F41002040413F017FA4
S11301E0081422417F404040407F021C027F7F046C
S11301F008107F3E4141413E7F090909063E4151B5
S1130200215E7F09192946264949493203017F01A4
S1130210033F4040403F1F2040201F3F4038403FA5
S1130220631408146303047804036159494D4300BB
S11302307F4141410204081020004141417F0402F2
S11302400102044040404040000307080020545489
S113025078407F2844443838444444283844442867
S11302607F385454541800087E090218A4A49C78BA
S11302707F0804047800447D40002040403D007F16
S11302801028440000417F40007C047804787C08F6
S11302900404783844444438FC18242418182424CA
S11302A018FC7C08040408485454542404043F44AF
S11302B0243C4040207C1C2040201C3C4030403CDE
S11302C044281028444C9090907C4464544C44003E
S11302D008364100000077000000413608000201A2
S11302E00204023C2623263C1EA1A161123A40408E
S11302F0207A38545455592155557941225454780B
S113030042215554784020545579400C1E527212A3
S1130310395555555939545454593955545458002C
S113032000457C410002457D420001457C407D1230
S113033011127DF0282528F07C5455450020545492
S11303407C547C0A097F4932494949323A4444443D
S11303503A324A4848303A4141217A3A4240207878
S1130360009DA0A07D3D4242423D3D4040403D3C79
S113037024FF2424487E4943662B2FFC2F2BFF099E
S113038029F620C0887E0903205454794100004492
S11303907D413048484A32384040227A007A0A0A7D
S11303A0727D0D19317D2629292F282629292926F0
S11303B030484D4020380808080808080808382F35
S11303C010C8ACBA2F102834FA00007B00000814BF
S11303D02A142222142A1408AA005500AAAA55AAEB
S11303E055AA000000FF00101010FF00141414FFA1
S11303F0001010FF00FF1010F010F0141414FC0093
S11304001414F700FF0000FF00FF1414F404FC149C
S11304101417101F10101F101F1414141F00101095
S113042010F0000000001F101010101F101010100A
S1130430F010000000FF101010101010101010FF2A
S113044010000000FF140000FF00FF00001F101741
S11304500000FC04F414141710171414F404F4002A
S113046000FF00F714141414141414F700F71414F0
S113047014171410101F101F141414F4141010F077
S113048010F000001F101F0000001F14000000FCEB
S1130490140000F010F01010FF10FF141414FF14D7
S11304A01010101F00000000F010FFFFFFFFFFF00E
S11304B0F0F0F0F0FFFFFF0000000000FFFF0F0F5F
S11304C00F0F0F3844443844FC4A4A4A347E02022F
S11304D00606027E027E0263554941633844443C69
S11304E004407E201E2006027E020299A5E7A599FB
S11304F01C2A492A1C4C7201724C304A4D4D303032
S113050048784830BC625A463D3E494949007E011C
S113051001017E2A2A2A2A2A44445F444440514A3B
S1130520444040444A51400000FF0103E080FF0082
S11305300008086B6B083612362436060F090F06BE
S1130540000018180000001010003040FF010100E6
S11305501F01011E00191D1712003C3C3C3C000009
S11305600000000011241FBECFEFD8E0DEBFCDBFD6
S113057011E0A0E0B1E0EAE4F6E202C005900D92D9
S1130580A23DB107D9F721E0A2EDB1E001C01D926F
S1130590A13FB207E1F70E94C40B0C9423130C94FF
S11305A000008FEF8AB95F9A209A089584B18E6211
S11305B084B980E58CBD8DB581608DBD299A08957F
S11305C08EBD0DB407FEFDCF089595B19C7F95B9FE
S11305D000C000C000000E94E002299A0895289AF1
S11305E0000029980E94E002299A0895DF92EF9270
S11305F0FF920F931F93CF93DF93E82ED92ED62F1C
S1130600172F042FF52EC22F8AE20E94E5028D2DAA
S11306100E94EF028E2D0E94EF028F2D0E94EF02A6
S1130620802F0E94EF028BE20E94E502812F0E943C
S1130630EF028D2F0E94EF028C2F0E94EF028C2F6D
S11306400E94EF028CE20E94E502DF91CF911F919C
S11306500F91FF90EF90DF9008955F9A8FE493ECF1
S11306600197F1F700C000005F988FE493EC0197C5
S1130670F1F700C000005F9A8FE493EC0197F1F763
S113068000C0000008950E94D1020E94D6020E9478
S11306902D0381E00E94E5022FE38DE093E02150D9
S11306A080409040E1F700C000008BEC0E94E5021E
S11306B089E30E94EF028CE20E94EF0280E00E9434
S11306C0EF0284E30E94EF0282E00E94EF028FECCB
S11306D00E94E50280E00E94EF0281EC0E94EF029A
S11306E080E30E94EF0288EE0E94E50285E80E9402
S11306F0EF0280E00E94EF0288E70E94EF028AEE98
S11307000E94E50280E00E94EF0280E00E94EF0276
S11307108DEE0E94E50284E60E94EF0283E00E94CF
S1130720EF0282E10E94EF0281E80E94EF0287EF6C
S11307300E94E50280E20E94EF0280EC0E94E50242
S113074083E20E94EF0281EC0E94E50280E10E94B4
S1130750EF0285EC0E94E5028EE30E94EF0288E23C
S11307600E94EF0287EC0E94E50286E80E94EF02F5
S113077086E30E94E50288E40E94EF028AE30E9475
S1130780E50285E50E94EF0281EB0E94E50280E02C
S11307900E94EF0288E10E94EF0286EB0E94E502CC
S11307A088E00E94EF0282E80E94EF0287E20E9442
S11307B0EF0282EF0E94E50280E00E94EF0286E2EF
S11307C00E94E50281E00E94EF0280EE0E94E502B1
S11307D08FE00E94EF0281E30E94EF028BE20E940D
S11307E0EF028CE00E94EF028EE00E94EF0288E0AC
S11307F00E94EF028EE40E94EF0281EF0E94EF025A
S113080087E30E94EF0287E00E94EF0280E10E94EA
S1130810EF0283E00E94EF028EE00E94EF0289E083
S11308200E94EF0280E00E94EF0281EE0E94E50246
S113083080E00E94EF028EE00E94EF0284E10E94B9
S1130840EF0283E00E94EF0281E10E94EF0287E061
S11308500E94EF0281E30E94EF0281EC0E94EF020A
S113086088E40E94EF0288E00E94EF028FE00E9479
S1130870EF028CE00E94EF0281E30E94EF0286E324
S11308800E94EF028FE00E94EF0281E10E94E502E4
S11308908FE295E70197F1F700C0000089E20E941A
S11308A0E5020895CF93C82F892F0E94EF028C2F61
S11308B00E94EF02CF910895EF92FF920F931F933E
S11308C0CF93DF938C01209100013091010140917D
S11308D0020150910301215031094150510960E056
S11308E070E080E090E00E94F60280910201909115
S11308F00301892BC9F421C0C0E0D0E0C8010E94E3
S1130900520421968091000190910101C817D907E2
S1130910A8F38FEFE81AF80A80910201909103017D
S1130920E816F90618F009C0E12CF12C80910001B9
S113093090910101892B01F7ECCFDF91CF911F91A9
S11309400F91FF90EF900895CF93DF9320910201D0
S1130950309103018217930798F42091000130919C
S113096001016217730760F4EA019B012F5F3F4F97
S1130970AC014F5F5F4F0E94F602CE010E94520409
S1130980DF91CF9108950F931F93CF93DF93EA01E3
S1130990890120910201309103018217930740F5E8
S11309A020910001309101016217730708F540910D
S11309B00001509101019E0121503109260F371F7A
S11309C02417350730F0C0910001D0910101C61BF6
S11309D0D70B9B01215031092C0F3D1FAC010E9404
S11309E0F602209729F0C8010E9452042197D9F7F2
S11309F0DF91CF911F910F9108950F931F93CF9380
S1130A00DF93EA01890120910201309103018217E9
S1130A10930740F52091000130910101621773079B
S1130A2008F540910201509103019E0121503109C2
S1130A30280F391F2417350730F0C0910201D091D7
S1130A400301C81BD90BAC01415051094C0F5D1F68
S1130A509B010E94F602209729F0C8010E945204CB
S1130A602197D9F7DF91CF911F910F910895CF92DC
S1130A70DF92EF92FF920F931F93CF93DF936A015C
S1130A80790120910201309103018217930708F044
S1130A904AC020910001309101016217730708F0E8
S1130AA042C0409102015091030196012150310945
S1130AB0280F391F2417350730F0C0900201D09059
S1130AC00301C81AD90A409100015091010197010C
S1130AD021503109260F371F2417350730F0E090D5
S1130AE00001F0900101E61AF70A9B012150310937
S1130AF02E0D3F1DAC01415051094C0D5D1D0E944E
S1130B00F602E114F10459F40EC0E601C8010E9492
S1130B1052042197D9F781E0E81AF10821F0C114B1
S1130B20D10499F7F8CFDF91CF911F910F91FF90E6
S1130B30EF90DF90CF900895CF93C82F86E30E9463
S1130B40E5028C2F83708130B1F028F0823019F1E6
S1130B50833089F13FC088E40E94EF0280EF90E087
S1130B60909303018093020180E491E0909301014A
S1130B70809300012FC088E20E94EF0280E491E09C
S1130B80909303018093020180EF90E09093010120
S1130B90809300011FC088E80E94EF0280EF90E07C
S1130BA0909303018093020180E491E0909301010A
S1130BB0809300010FC088EE0E94EF0280E491E070
S1130BC0909303018093020180EF90E090930101E0
S1130BD080930001CF9108952F923F924F925F929C
S1130BE06F927F928F929F92AF92BF92CF92DF9239
S1130BF0EF92FF920F931F93CF93DF93CDB7DEB79E
S1130C002E970FB6F894DEBF0FBECDBFE091020160
S1130C10F09103018E179F0708F09EC078876F83B9
S1130C20E0910001F09101016E177F0708F094C074
S1130C30CE2CD12CDA82C982F601EE0FFF1FEC0D07
S1130C40FD1DEE0FFF1FE80FF91F31970AF484C052
S1130C50CC0CDD1CCC0CDD1CCC0CDD1C6C0D7D1D0A
S1130C60615071090AF478C0EB821C870B87490133
S1130C7050E09A01220F331F220F331F420F531FDC
S1130C80AE2CB12C2C011C01E12C6A01C81AD90A22
S1130C90DA86C9866F80788428E0620E711CEC8243
S1130CA02C81253009F44DC0E985FA85E40DF51D44
S1130CB0E859FF4FF49046C050FE14C08B81813038
S1130CC041F4A4016D857E858D819E810E94A404DA
S1130CD01FC0840129813A81A901B601C1010E9482
S1130CE0370516C08E149F0499F09B81913041F40E
S1130CF0A7016D857E858D819E810E94A40408C014
S1130D00870129813A81A901B601C1010E943705F1
S1130D105694CA0CDB1CED85FE853196FE87ED8763
S1130D20E615F70549F64D805E80FC81FF5FFC8384
S1130D302A0C3B1C2FEF421A520AF63009F0B0CFAE
S1130D400BC0F12CCF80D884DE86CD865E824D82A6
S1130D505F2CEB84FC84B0CF2E960FB6F894DEBFE4
S1130D600FBECDBFDF91CF911F910F91FF90EF90F8
S1130D70DF90CF90BF90AF909F908F907F906F90B7
S1130D805F904F903F902F9008959093E701809348
S1130D90E6017093D5016093D40108959093E50121
S1130DA08093E4017093D3016093D2010895893054
S1130DB028F4811101C081E08093E8010895EF9245
S1130DC00F931F938A30A1F42091E8018091D401FC
S1130DD09091D50138E0239F800D911D11249093AB
S1130DE0D5018093D4011092E7011092E6012CC042
S1130DF08D3051F1482FE090E8010091D20110911B
S1130E00D3012091E4013091E5016091D401709106
S1130E10D5018091E6019091E7010E94EC05909143
S1130E20E8012091E6013091E701892F90E0AC01BF
S1130E30440F551F840F951F880F991F820F931F0E
S1130E409093E7018093E6011F910F91EF9008952D
S1130E500E94DF060895ECE7F0E09081907F8F70A8
S1130E60892B8083EAE7F0E080818064808380813D
S1130E7086FDFDCF809178009091790008952FEF41
S1130E803FEF40EF50E060E570E081E090E00E94C9
S1130E90FD042FEF3FEF40EF50E061E570E081E0AB
S1130EA090E00E94FD042FEF3FEF40EF50E06FE42D
S1130EB070E081E090E00E94FD042FEF3FEF40EFEF
S1130EC050E060EA70E081E090E00E94FD042FEFC2
S1130ED03FEF40EF50E06FE970E081E090E00E9466
S1130EE0FD042FEF3FEF40EF50E061EA70E081E056
S1130EF090E00E94FD042FEF3FEF40EF50E061E0EF
S1130F0070E080E590E00E94C3042FEF3FEF40EFD4
S1130F1050E061E070E081E590E00E94C3042FEFAF
S1130F203FEF40EF50E061E070E08FE490E00E941A
S1130F30C3042FEF3FEF40EF50E061E070E080EA40
S1130F4090E00E94C3042FEF3FEF40EF50E061E0D8
S1130F5070E081EA90E00E94C3042FEF3FEF40EF7E
S1130F6050E061E070E08FE990E00E94C3042FEF4D
S1130F703FEF40EF50E061E070E080EF90E00E94CE
S1130F80C3042FEF3FEF40EF50E061E070E08FEEDD
S1130F9090E00E94C3042FEF3FEF40EF50E061E088
S1130FA070E081EF90E00E94C30408950E94C5069A
S1130FB08FE99FE00197F1F700C0000060E070E066
S1130FC080E098EF0E94CE068FE99FE00197F1F749
S1130FD000C0000088E00E94D7068FE99FE00197D7
S1130FE0F1F700C0000088E590E00E9424108FE92A
S1130FF09FE00197F1F700C0000008950E94C50624
S11310008FE99FE00197F1F700C0000060E070E015
S113101080EE97E00E94CE068FE99FE00197F1F7FA
S113102000C0000088E00E94D7068FE99FE0019786
S1131030F1F700C000008FE490E00E9424108FE9D3
S11310409FE00197F1F700C0000008950F931F93EC
S1131050CF93DF938C01C0E0D0E0F80181919191AE
S11310608F018F3FFFEF9F0781F00197D9F4FE01B5
S1131070EE0FFF1FEE0FFF1FEE5EFE4F62817381C6
S1131080808191810E94FE070DC0FE01EE0FFF1FBB
S1131090EE0FFF1FEE5EFE4F6281738180819181AE
S11310A00E94D6072196C930D105B9F6DF91CF91B8
S11310B01F910F910895CF93DF93CDB7DEB7E097DB
S11310C00FB6F894DEBF0FBECDBF20E3E6E3F1E038
S11310D0DE01119601900D922A95E1F7FE013196F9
S11310E0AE014F5C5F4FA081B181AA0FBB1FA80F57
S11310F0B91F6D917C9161157105C1F0A281B38115
S1131100AA0FBB1FA80FB91F0D90BC91A02D6A1781
S11311107B0761F424813581D901AA0FBB1FA80F75
S1131120B91F2D913C916217730731F03696E4177D
S1131130F507C9F620E030E0C901E0960FB6F8944F
S1131140DEBF0FBECDBFDF91CF9108954F925F9266
S11311506F927F928F929F92AF92BF92CF92DF92C3
S1131160EF92FF920F931F93CF93DF93482E592E44
S11311706B010E945B08009741F08C9D70018D9D6E
S1131180F00C9C9DF00C112435C0C42DD52D812C60
S1131190912C0F2EFEEFEF2EFF24FA94F02DAA24AB
S11311A0AA94BA2C662477246C187D088E01888151
S11311B09981892B91F4D982C882B301842D952D0C
S11311C00E94A608919581959109E816F90614F4F0
S11311D07C015401F80111821082FFEF8F1A9F0ADB
S11311E0229689E08816910409F7AB20A09411F4A3
S11311F0E12CF12CC701DF91CF911F910F91FF904A
S1131200EF90DF90CF90BF90AF909F908F907F90A2
S11312106F905F904F9008958F929F92AF92BF927C
S1131220CF92DF92EF92FF920F931F93CF93DF93AE
S11312307C01EC01812C912C0F2EFEEFCF2EDD24AE
S1131240DA94F02D0FEF1FEFAA24A394B12C888118
S11312509981892B89F4B982A8826FEF7FEFC70146
S11312600E94A60891958195910919821882C81641
S1131270D90614F46C0184018FEF881A980A229617
S113128089E08816910419F7000F111FF701E00F88
S1131290F11F81E090E091838083DF91CF911F91D2
S11312A00F91FF90EF90DF90CF90BF90AF909F9001
S11312B08F9008956F927F928F929F92AF92BF9278
S11312C0CF92DF92EF92FF920F931F93CF93DF930E
S11312D05C01EB017A01BA01675071090FE110E07A
S11312E02AE030E041E150E0CE0141970E94370509
S11312F001C06C0185E00E942B078538934028F1DA
S113130080EAE816F10408F5B7016750710900E0B6
S113131010E02AE030E041E150E04E0191E1891A09
S11313209108C4010E943705370120E5620E711C43
S1131330B701675B7F4F0FE110E02AE030E041E145
S113134050E0C4010E94370573018FEF90E722E05B
S1131350815090402040E1F700C0000084E00E94EA
S11313602B07883C910510F5C03AD105F8F400E04C
S113137010E02AE030E041E150E0370187E0681AEC
S11313807108B301CE0141970E9437054E0190E5E3
S1131390890E911C0FE110E02AE030E041E150E0B9
S11313A0B301CE01CF960E943705E4012FEF80E709
S11313B092E0215080409040E1F700C0000085E0B9
S11313C00E942B07883C910528F521E5E216F104DB
S11313D008F1B7016750710900E010E02AE030E03D
S11313E041E150E04E0181E1881A9108C4010E9454
S11313F03705370190E5691A7108B7016755710916
S11314000FE110E02AE030E041E150E0C4010E9425
S1131410370573012FEF80E792E021508040904020
S1131420E1F700C0000084E00E942B078538934058
S113143008F460C0C135D10508F45CC000E010E0D8
S11314402AE030E041E150E0370187E0681A710892
S1131450B301CE0141970E9437054E0190E5891AE8
S113146091080FE110E02AE030E041E150E0B301DF
S1131470CE01815691090E943705E4013BC0FC016D
S1131480EE0FFF1FEE0FFF1FEE5EFE4F2081318136
S11314902C173D0799F4FC01EE0FFF1FEE0FFF1F01
S11314A0EE5EFE4F22813381E216F30639F42D916C
S11314B03C911197232B09F01CCF6C0101961296D5
S11314C089309105E1F6B7016750710900E010E039
S11314D02AE030E044E150E0CE0141970E94370514
S11314E0CC0CDD1CF501EC0DFD1D8FEF9FEF9183FE
S11314F0808306C04E99FECED50180E090E0BFCF38
S1131500DF91CF911F910F91FF90EF90DF90CF90DB
S1131510BF90AF909F908F907F906F9008956F923F
S11315207F928F929F92AF92BF92CF92DF92EF926F
S1131530FF920F931F93CF93DF935C01EB017A012A
S1131540BA01675071090FE110E02AE030E041E18F
S113155050E0CE0141970E94370501C06C0185E03F
S11315600E942B078D3B924028F180EAE816F10493
S113157008F5B7016750710900E010E02AE030E097
S113158041E150E04E0191E1891A9108C4010E94A1
S11315903705370120E5620E711CB701675B7F4F89
S11315A00FE110E02AE030E041E150E0C4010E9484
S11315B0370573018FEF90E722E08150904020407F
S11315C0E1F700C0000084E00E942B078C329140B8
S11315D010F5C03AD105F8F400E010E02AE030E05C
S11315E041E150E0370187E0681A7108B301CE0188
S11315F041970E9437054E0190E5890E911C0FE139
S113160010E02AE030E041E150E0B301CE01CF9692
S11316100E943705E4012FEF80E792E021508040DB
S11316209040E1F700C0000085E00E942B078C3257
S1131630914028F581E5E816F10408F1B7016750F7
S1131640710900E010E02AE030E041E150E04E0191
S113165091E1891A9108C4010E943705370120E5F8
S1131660621A7108B701675571090FE110E02AE0A9
S113167030E041E150E0C4010E94370573018FEF6F
S113168090E722E0815090402040E1F700C0000044
S113169084E00E942B078D3B924008F460C0C13562
S11316A0D10508F45CC000E010E02AE030E041E13C
S11316B050E0370187E0681A7108B301CE01419701
S11316C00E9437054E0190E5891A91080FE110E058
S11316D02AE030E041E150E0B301CE0181569109A6
S11316E00E943705E4013BC0FC01EE0FFF1FEE0F23
S11316F0FF1FEE5EFE4F208131812C173D0799F4C8
S1131700FC01EE0FFF1FEE0FFF1FEE5EFE4F228166
S11317103381E216F30639F42D913C911197232B72
S113172009F01CCF6C010196129689309105E1F6FF
S1131730B7016750710900E010E02AE030E044E1AD
S113174050E0CE0141970E943705CC0CDD1CF50119
S1131750EC0DFD1D81E090E09183808306C04E99DD
S1131760FECED50180E090E0BFCFDF91CF911F91F5
S11317700F91FF90EF90DF90CF90BF90AF909F902C
S11317808F907F906F9008954F925F926F927F92A7
S11317908F929F92AF92BF92CF92DF92EF92FF927D
S11317A00F931F93CF93DF93CDB7DEB762970FB636
S11317B0F894DEBF0FBECDBF84E091E09093EE01BC
S11317C08093ED010E94430380EE97E00E945C0445
S11317D02FEF80E792E0215080409040E1F700C075
S11317E0000083E00E949C0556985E9AECE7F0E0C6
S11317F0808180648083EAE7F0E080818068808370
S1131800FE01319682E1DF011D928A95E9F76CE3CE
S113181070E088E290E00E94C50660EE77E080E028
S113182098EF0E94CE0684E00E94D70686E691E0F7
S11318309F938F930E940E106EE670E088E290E012
S11318400E94C50660EE77E08FE190E00E94CE062C
S113185082E00E94D70681E791E09F938F930E94D4
S11318600E1062E870E088E290E00E94C50660EE27
S113187077E08FE190E00E94CE0682E00E94D706D6
S113188081E891E09F938F930E940E100F900F9028
S11318900F900F900F900F9001E010E00F2EF2E7E1
S11318A08F2EF1E09F2EF02D0F2EF0E8AF2EF1E0F9
S11318B0BF2EF02D6894442441F8512C0F2EF1E7EB
S11318C0CF2EF1E0DF2EF02D0F2EF1E8EF2EF1E018
S11318D0FF2EF02D66246394712C85E00E942B0763
S11318E08139914068F56EE670E088E290E00E94EC
S11318F0C50660EE77E08FE190E00E94CE0682E0BC
S11319000E94D706DF92CF920E940E1062E870E028
S113191088E290E00E94C50660EE77E08FE190E0F7
S11319200E94CE0682E00E94D706FF92EF920E94A8
S11319300E100F900F900F900F90062D172D32C0A0
S113194085E00E942B078935924060F16EE670E0D5
S113195088E290E00E94C50660EE77E08FE190E0B7
S11319600E94CE0682E00E94D7069F928F920E9428
S11319700E1062E870E088E290E00E94C50660EE16
S113198077E08FE190E00E94CE0682E00E94D706C5
S1131990BF92AF920E940E100F900F900F900F9075
S11319A0042D152D4E9999CF0130110509F077C1F9
S11319B080E090E00E945C040E943F0700E010E099
S11319C00F2EF9E7AF2EF1E0BF2EF02D0F2EFEE91A
S11319D0CF2EF1E0DF2EF02D0F2EF4E9EF2EF1E003
S11319E0FF2EF02D0F2EFDE88F2EF1E09F2EF02D0F
S11319F00F2EF9E96F2EF1E07F2EF02D92C0C80171
S1131A0081709078992324F401978E6F9F6F0196CB
S1131A10019709F03FC06AE070E08AEF90E00E940D
S1131A20C50660E070E08FEF9FEF0E94CE0682E073
S1131A300E94D7069F928F920E940E106EE170E072
S1131A408AEF90E00E94C506FF92EF920E940E106A
S1131A5062E370E08AEF90E00E94C5067F926F9285
S1131A600E940E10CE0101960E940C098FEF99E698
S1131A70A8E181509040A040E1F700C00000CE01F1
S1131A8001960E9426080F900F900F900F900F90D0
S1131A900F9042C06AE070E08AEF90E00E94C506B1
S1131AA060E070E08FEF9FEF0E94CE0682E00E941C
S1131AB0D706BF92AF920E940E106EE170E08AEFDB
S1131AC090E00E94C506DF92CF920E940E1062E35E
S1131AD070E08AEF90E00E94C506FF92EF920E94A8
S1131AE00E104AE050E064E170E0CE0101960E94DD
S1131AF05A09BFEF29E688E1B15020408040E1F760
S1131B0000C00000CE0101960E9426080F900F909D
S1131B100F900F900F900F900F5F1F4F093011051A
S1131B2039F0CE0101960E945B08892B09F467CF36
S1131B30CE0101960E945B08009741F08130910527
S1131B4009F441C0019609F030C26CC06AE070E04B
S1131B508AEF90E00E94C50660E070E08FEF9FEF8F
S1131B600E94CE0682E00E94D70683EA91E09F930A
S1131B708F930E940E106EE170E08AEF90E00E9455
S1131B80C5068AEA91E09F938F930E940E1062E348
S1131B9070E08AEF90E00E94C50681EB91E09F938C
S1131BA08F930E940E10BFEF23ED80E3B1502040CD
S1131BB08040E1F700C000000F900F900F900F904D
S1131BC00F900F90F2C16AE070E08AEF90E00E94FB
S1131BD0C50660E070E08FEF9FEF0E94CE0682E0C2
S1131BE00E94D70686EB91E09F938F930E940E107C
S1131BF06EE170E08AEF90E00E94C5068AEB91E006
S1131C009F938F930E940E109FEFA3EDB0E391502A
S1131C10A040B040E1F700C000000F900F900F907B
S1131C200F90C3C16AE070E08AEF90E00E94C5069D
S1131C3060E070E08FEF9FEF0E94CE0682E00E948A
S1131C40D70689E791E09F938F930E940E106EE16F
S1131C5070E08AEF90E00E94C5068FEB91E09F93BD
S1131C608F930E940E1062E370E08AEF90E00E946E
S1131C70C5068AEB91E09F938F930E940E102FEF7D
S1131C8083ED90E3215080409040E1F700C00000D4
S1131C900F900F900F900F900F900F9086C102300D
S1131CA0110509F082C180E090E00E945C040E946A
S1131CB03F0700E010E00F2EF9E7CF2EF1E0DF2E12
S1131CC0F02D0F2EFFEBAF2EF1E0BF2EF02D0F2ED7
S1131CD0F4E9EF2EF1E0FF2EF02D0F2EF3EC8F2E12
S1131CE0F1E09F2EF02D96C0C80181709078992361
S1131CF024F401978E6F9F6F0196019709F043C0FA
S1131D006AE070E08AEF90E00E94C50660E070E04F
S1131D108FEF9FEF0E94CE0682E00E94D706DF92EB
S1131D20CF920E940E106EE170E08AEF90E00E9464
S1131D30C5069F928F920E940E1062E370E08AEFB4
S1131D4090E00E94C506FF92EF920E940E104AE0B6
S1131D5050E064E170E0CE0101960E948F0AAFEF7B
S1131D60B9E628E1A150B0402040E1F700C00000EE
S1131D70CE0101960E9426080F900F900F900F90AD
S1131D800F900F9042C06AE070E08AEF90E00E94EA
S1131D90C50660E070E08FEF9FEF0E94CE0682E000
S1131DA00E94D706DF92CF920E940E106EE170E07F
S1131DB08AEF90E00E94C506BF92AF920E940E1077
S1131DC062E370E08AEF90E00E94C506FF92EF9212
S1131DD00E940E104AE050E064E170E0CE010196EA
S1131DE00E945A098FEF99E6A8E181509040A040E3
S1131DF0E1F700C00000CE0101960E9426080F9072
S1131E000F900F900F900F900F900F5F1F4F09309E
S1131E10110539F0CE0101960E945B08892B09F463
S1131E2063CFCE0101960E945B08009741F0813098
S1131E30910509F441C0019609F0B7C07AC06AE07F
S1131E4070E08AEF90E00E94C50660E070E08FEFDA
S1131E509FEF0E94CE0682E00E94D70683EA91E0BB
S1131E609F938F930E940E106EE170E08AEF90E0D2
S1131E700E94C5068AEA91E09F938F930E940E10F8
S1131E8062E370E08AEF90E00E94C50681EB91E086
S1131E909F938F930E940E102FEF83ED90E32150B8
S1131EA080409040E1F700C000000F900F900F9029
S1131EB00F900F900F9079C06AE070E08AEF90E085
S1131EC00E94C50660E070E08FEF9FEF0E94CE068F
S1131ED082E00E94D70689E791E09F938F930E9446
S1131EE00E106EE170E08AEF90E00E94C50683EC6C
S1131EF091E09F938F930E940E1062E370E08AEF4B
S1131F0090E00E94C5068AEB91E09F938F930E9414
S1131F100E10AFEFB3ED20E3A150B0402040E1F745
S1131F2000C000000F900F900F900F900F900F9033
S1131F303CC06AE070E08AEF90E00E94C50660E071
S1131F4070E08FEF9FEF0E94CE0682E00E94D706DA
S1131F5089E791E09F938F930E940E106EE170E0E9
S1131F608AEF90E00E94C5068FEB91E09F938F93D8
S1131F700E940E1062E370E08AEF90E00E94C506B2
S1131F808AEB91E09F938F930E940E108FEF93ED55
S1131F90A0E381509040A040E1F700C000000F9002
S1131FA00F900F900F900F900F9080E098EF0E9489
S1131FB05C0464E670E084E190E00E94C50660E0A1
S1131FC078EF80EE97E00E94CE0685E00E94D70667
S1131FD087EC91E00E942B10BFEF23ED80E3B1501A
S1131FE020408040E1F700C0000080E090E062966D
S1131FF00FB6F894DEBF0FBECDBFDF91CF911F9116
S11320000F91FF90EF90DF90CF90BF90AF909F9093
S11320108F907F906F905F904F900895A0E0B0E014
S1132020E4E1F0E10C94FC12AE014B5F5F4FFA0166
S113203061917191AF018091ED019091EE010E9447
S11320405B10E2E00C9418136091ED017091EE01C5
S11320500E94521208950F931F93CF93DF93E09140
S1132060ED01F091EE01238121FF1BC08C01D0E032
S1132070C0E0F80181918F016091ED017091EE0152
S1132080DB011896ED91FC911997882331F009959D
S1132090892B79F3DFEFCFEFECCF8AE00995892B19
S11320A019F08FEF9FEF02C08D2F9C2FDF91CF91FE
S11320B01F910F910895ABE0B0E0E1E6F0E10C94DC
S11320C0EC126C017B018A01FC0117821682838168
S11320D081FFCCC1CE0101963C01F6019381F70149
S11320E093FD859193FF81917F01882309F4BAC1FF
S11320F0853239F493FD859193FF81917F01853277
S113210029F4B60190E00E945212E7CF912C212CC1
S1132110312CFFE1F315D8F08B3279F038F48032AA
S113212079F08332A1F4232D20611DC08D3261F03A
S1132130803369F4232D216016C0832D8260382EEC
S1132140E32DE4603E2E2AC0F32DF8601DC037FC59
S11321502DC020ED280F2A3040F08E32B9F436FC21
S113216081C1232D2064322E19C036FE06C08AE0B8
S1132170989E200D1124922E11C0EAE02E9E200D6F
S11321801124222EF32DF0623F2E08C08C3621F448
S1132190832D8068382E02C0883641F4F70193FD00
S11321A0859193FF81917F018111B3CF982F9F7DFA
S11321B09554933028F40C5F1F4F9FE399830DC00F
S11321C0833631F0833771F0833509F059C021C06B
S11321D0F801808189830E5F1F4F88248394912C9A
S11321E0530113C02801F2E04F0E511CF801A080E6
S11321F0B18036FE03C0692D70E002C06FEF7FEF3F
S1132200C5010E9447124C018201F32DFF773F2E36
S113221016C0280122E0420E511CF801A080B180B2
S113222036FE03C0692D70E002C06FEF7FEFC50179
S11322300E943C124C01F32DF0683F2E820133FCC6
S11322401BC0822D90E088169906B0F4B60180E296
S113225090E00E9452122A94F4CFF50137FC859144
S113226037FE81915F01B60190E00E945212211065
S11322702A9421E0821A91088114910471F7E8C02C
S1132280843611F0893641F5F80137FE07C06081C4
S11322907181828193810C5F1F4F08C060817181BD
S11322A0072E000C880B990B0E5F1F4FF32DFF7642
S11322B03F2E97FF09C090958095709561957F4F4B
S11322C08F4F9F4FF0683F2E2AE030E0A3010E9419
S11322D08E12882E861845C0853731F4232D2F7E23
S11322E0B22E2AE030E025C0932D997FB92E8F3687
S11322F0C1F018F4883579F0B5C0803719F0883703
S113230021F0B0C0E92FE061BE2EB4FE0DC0FB2D5C
S1132310F460BF2E09C034FE0AC0292F2660B22EF5
S113232006C028E030E005C020E130E002C020E132
S113233032E0F801B7FE07C0608171818281938128
S11323400C5F1F4F06C06081718180E090E00E5FDA
S11323501F4FA3010E948E12882E8618FB2DFF7733
S11323603F2E36FE0DC0232D2E7FA22E891458F445
S113237034FE0BC032FC09C0832D8E7EA82E05C00E
S1132380B82CA32C03C0B82C01C0B92CA4FE0FC0D8
S1132390FE01E80DF11D8081803321F49A2D997E90
S11323A0A92E09C0A2FE06C0B394B39404C08A2D1A
S11323B0867809F0B394A3FC11C0A0FE06C0B21441
S11323C088F4280C922C9B180EC0B21460F4B60149
S11323D080E290E00E945212B394F7CFB21418F442
S11323E02B1802C0982C212CA4FE10C0B60180E347
S11323F090E00E945212A2FE17C0A1FC03C088E71D
S113240090E002C088E590E0B6010CC08A2D867881
S113241059F0A1FE02C08BE201C080E2A7FC8DE26C
S1132420B60190E00E945212891438F4B60180E398
S113243090E00E9452129A94F7CF8A94F301E80D27
S1132440F11D8081B60190E00E9452128110F5CFF7
S1132450222009F442CEB60180E290E00E9452129A
S11324602A94F6CFF6018681978102C08FEF9FEF01
S11324702B96E2E10C940813FC0105906150704026
S11324800110D8F7809590958E0F9F1F0895FC0139
S11324906150704001900110D8F7809590958E0F8F
S11324A09F1F08950F931F93CF93DF93FB01238105
S11324B021FD03C08FEF9FEF2CC022FF16C0468181
S11324C05781248135814217530744F4A081B18197
S11324D09D012F5F3F4F318320838C932681378169
S11324E02F5F3F4F3783268314C08B01EC01FB0120
S11324F00084F185E02D0995892BE1F6D801169623
S11325008D919C911797019617969C938E9316978D
S1132510CE01DF91CF911F910F910895FA01AA275F
S1132520283051F1203181F1E8946F936E7F6E5F12
S11325307F4F8F4F9F4FAF4FB1E03ED0B4E03CD0C0
S1132540670F781F891F9A1FA11D680F791F8A1FA3
S1132550911DA11D6A0F711D811D911DA11D20D00A
S113256009F468943F912AE0269F11243019305DC4
S11325703193DEF6CF010895462F4770405D4193B5
S1132580B3E00FD0C9F7F6CF462F4F70405D4A3302
S113259018F0495D31FD4052419302D0A9F7EACFCA
S11325A0B4E0A6959795879577956795BA95C9F7F9
S11325B000976105710508959B01AC010A2E0694EC
S11325C05795479537952795BA95C9F7620F731FA5
S11325D0841F951FA01D08952F923F924F925F92E2
S11325E06F927F928F929F92AF92BF92CF92DF921F
S11325F0EF92FF920F931F93CF93DF93CDB7DEB784
S1132600CA1BDB0B0FB6F894DEBF0FBECDBF099417
S11326102A88398848885F846E847D848C849B846E
S1132620AA84B984C884DF80EE80FD800C811B817C
S1132630AA81B981CE0FD11D0FB6F894DEBF0FBEAB
S10D2640CDBFED010895F894FFCF1B
S113264AF00040010000000200000000280700001A
S113265A000014000A0064000A00B4000A0014000E
S113266A5A0064005A00B4005A001400AA00640014
S113267AAA00B400AA00000001000200030004003A
S113268A0500060007000800000003000600010018
S113269A0400070002000500080000000400080006
S11326AA020004000600584F2053746174696F6E67
S11326BA002D53696E676C6520506C6179657200F0
S11326CA2D4D756C7469706C6179657200434D5057
S11326DA202020005475726E0020202020004F6EA6
S11326EA652000447261772020004E6F206F6E656A
S11326FA0077696E7300434D500057696E73004F3B
S113270A6E650054776F0047414D45204F56455238
S105271A200099
S9030000FC
